{
  "contractName": "Kittycontract",
  "abi": [
    {
      "anonymous": false,
      "inputs": [
        {
          "indexed": true,
          "internalType": "address",
          "name": "owner",
          "type": "address"
        },
        {
          "indexed": true,
          "internalType": "address",
          "name": "approved",
          "type": "address"
        },
        {
          "indexed": true,
          "internalType": "uint256",
          "name": "tokenId",
          "type": "uint256"
        }
      ],
      "name": "Approval",
      "type": "event"
    },
    {
      "anonymous": false,
      "inputs": [
        {
          "indexed": false,
          "internalType": "address",
          "name": "owner",
          "type": "address"
        },
        {
          "indexed": false,
          "internalType": "uint256",
          "name": "kittenId",
          "type": "uint256"
        },
        {
          "indexed": false,
          "internalType": "uint256",
          "name": "mumId",
          "type": "uint256"
        },
        {
          "indexed": false,
          "internalType": "uint256",
          "name": "dadId",
          "type": "uint256"
        },
        {
          "indexed": false,
          "internalType": "uint256",
          "name": "genes",
          "type": "uint256"
        }
      ],
      "name": "Birth",
      "type": "event"
    },
    {
      "anonymous": false,
      "inputs": [
        {
          "indexed": true,
          "internalType": "address",
          "name": "from",
          "type": "address"
        },
        {
          "indexed": true,
          "internalType": "address",
          "name": "to",
          "type": "address"
        },
        {
          "indexed": true,
          "internalType": "uint256",
          "name": "tokenId",
          "type": "uint256"
        }
      ],
      "name": "Transfer",
      "type": "event"
    },
    {
      "constant": true,
      "inputs": [],
      "name": "CREATION_LIMIT_GEN0",
      "outputs": [
        {
          "internalType": "uint256",
          "name": "",
          "type": "uint256"
        }
      ],
      "payable": false,
      "stateMutability": "view",
      "type": "function"
    },
    {
      "constant": true,
      "inputs": [],
      "name": "gen0Counter",
      "outputs": [
        {
          "internalType": "uint256",
          "name": "",
          "type": "uint256"
        }
      ],
      "payable": false,
      "stateMutability": "view",
      "type": "function"
    },
    {
      "constant": true,
      "inputs": [
        {
          "internalType": "uint256",
          "name": "",
          "type": "uint256"
        }
      ],
      "name": "kittyIndexToOwner",
      "outputs": [
        {
          "internalType": "address",
          "name": "",
          "type": "address"
        }
      ],
      "payable": false,
      "stateMutability": "view",
      "type": "function"
    },
    {
      "constant": true,
      "inputs": [],
      "name": "name",
      "outputs": [
        {
          "internalType": "string",
          "name": "",
          "type": "string"
        }
      ],
      "payable": false,
      "stateMutability": "view",
      "type": "function"
    },
    {
      "constant": true,
      "inputs": [],
      "name": "symbol",
      "outputs": [
        {
          "internalType": "string",
          "name": "",
          "type": "string"
        }
      ],
      "payable": false,
      "stateMutability": "view",
      "type": "function"
    },
    {
      "constant": true,
      "inputs": [
        {
          "internalType": "uint256",
          "name": "_id",
          "type": "uint256"
        }
      ],
      "name": "getKitty",
      "outputs": [
        {
          "internalType": "uint256",
          "name": "genes",
          "type": "uint256"
        },
        {
          "internalType": "uint256",
          "name": "birthTime",
          "type": "uint256"
        },
        {
          "internalType": "uint256",
          "name": "mumId",
          "type": "uint256"
        },
        {
          "internalType": "uint256",
          "name": "dadId",
          "type": "uint256"
        },
        {
          "internalType": "uint256",
          "name": "generation",
          "type": "uint256"
        }
      ],
      "payable": false,
      "stateMutability": "view",
      "type": "function"
    },
    {
      "constant": false,
      "inputs": [
        {
          "internalType": "uint256",
          "name": "_genes",
          "type": "uint256"
        }
      ],
      "name": "createKittyGen0",
      "outputs": [
        {
          "internalType": "uint256",
          "name": "",
          "type": "uint256"
        }
      ],
      "payable": false,
      "stateMutability": "nonpayable",
      "type": "function"
    },
    {
      "constant": true,
      "inputs": [
        {
          "internalType": "address",
          "name": "owner",
          "type": "address"
        }
      ],
      "name": "balanceOf",
      "outputs": [
        {
          "internalType": "uint256",
          "name": "balance",
          "type": "uint256"
        }
      ],
      "payable": false,
      "stateMutability": "view",
      "type": "function"
    },
    {
      "constant": true,
      "inputs": [],
      "name": "totalSupply",
      "outputs": [
        {
          "internalType": "uint256",
          "name": "",
          "type": "uint256"
        }
      ],
      "payable": false,
      "stateMutability": "view",
      "type": "function"
    },
    {
      "constant": true,
      "inputs": [
        {
          "internalType": "uint256",
          "name": "_tokenId",
          "type": "uint256"
        }
      ],
      "name": "ownerOf",
      "outputs": [
        {
          "internalType": "address",
          "name": "",
          "type": "address"
        }
      ],
      "payable": false,
      "stateMutability": "view",
      "type": "function"
    },
    {
      "constant": false,
      "inputs": [
        {
          "internalType": "address",
          "name": "_to",
          "type": "address"
        },
        {
          "internalType": "uint256",
          "name": "_tokenId",
          "type": "uint256"
        }
      ],
      "name": "transfer",
      "outputs": [],
      "payable": false,
      "stateMutability": "nonpayable",
      "type": "function"
    }
  ],
  "bytecode": "0x6080604052336000806101000a81548173ffffffffffffffffffffffffffffffffffffffff021916908373ffffffffffffffffffffffffffffffffffffffff160217905550610bf8806100536000396000f3fe608060405234801561001057600080fd5b50600436106100a95760003560e01c8063a45f4bfc11610071578063a45f4bfc14610298578063a9059cbb14610306578063b483433014610354578063d5a776ca14610372578063e98b7f4d146103b4578063ef5e94aa14610412576100a9565b806306fdde03146100ae57806318160ddd146101315780636352211e1461014f57806370a08231146101bd57806395d89b4114610215575b600080fd5b6100b6610430565b6040518080602001828103825283818151815260200191508051906020019080838360005b838110156100f65780820151818401526020810190506100db565b50505050905090810190601f1680156101235780820380516001836020036101000a031916815260200191505b509250505060405180910390f35b610139610469565b6040518082815260200191505060405180910390f35b61017b6004803603602081101561016557600080fd5b8101908080359060200190929190505050610476565b604051808273ffffffffffffffffffffffffffffffffffffffff1673ffffffffffffffffffffffffffffffffffffffff16815260200191505060405180910390f35b6101ff600480360360208110156101d357600080fd5b81019080803573ffffffffffffffffffffffffffffffffffffffff1690602001909291905050506104b3565b6040518082815260200191505060405180910390f35b61021d6104fc565b6040518080602001828103825283818151815260200191508051906020019080838360005b8381101561025d578082015181840152602081019050610242565b50505050905090810190601f16801561028a5780820380516001836020036101000a031916815260200191505b509250505060405180910390f35b6102c4600480360360208110156102ae57600080fd5b8101908080359060200190929190505050610535565b604051808273ffffffffffffffffffffffffffffffffffffffff1673ffffffffffffffffffffffffffffffffffffffff16815260200191505060405180910390f35b6103526004803603604081101561031c57600080fd5b81019080803573ffffffffffffffffffffffffffffffffffffffff16906020019092919080359060200190929190505050610568565b005b61035c6105fd565b6040518082815260200191505060405180910390f35b61039e6004803603602081101561038857600080fd5b8101908080359060200190929190505050610602565b6040518082815260200191505060405180910390f35b6103e0600480360360208110156103ca57600080fd5b81019080803590602001909291905050506106e0565b604051808681526020018581526020018481526020018381526020018281526020019550505050505060405180910390f35b61041a61078f565b6040518082815260200191505060405180910390f35b6040518060400160405280600c81526020017f446567656e4b697474696573000000000000000000000000000000000000000081525081565b6000600180549050905090565b60006002600083815260200190815260200160002060009054906101000a900473ffffffffffffffffffffffffffffffffffffffff169050919050565b6000600360008373ffffffffffffffffffffffffffffffffffffffff1673ffffffffffffffffffffffffffffffffffffffff168152602001908152602001600020549050919050565b6040518060400160405280600281526020017f444b00000000000000000000000000000000000000000000000000000000000081525081565b60026020528060005260406000206000915054906101000a900473ffffffffffffffffffffffffffffffffffffffff1681565b600073ffffffffffffffffffffffffffffffffffffffff168273ffffffffffffffffffffffffffffffffffffffff1614156105a257600080fd5b3073ffffffffffffffffffffffffffffffffffffffff168273ffffffffffffffffffffffffffffffffffffffff1614156105db57600080fd5b6105e53382610795565b6105ee57600080fd5b6105f9338383610801565b5050565b600a81565b60003373ffffffffffffffffffffffffffffffffffffffff166000809054906101000a900473ffffffffffffffffffffffffffffffffffffffff1673ffffffffffffffffffffffffffffffffffffffff16146106a9576040517f08c379a0000000000000000000000000000000000000000000000000000000008152600401808060200182810382526022815260200180610ba26022913960400191505060405180910390fd5b600a600454106106b857600080fd5b6004600081548092919060010191905055506106d960008060008533610987565b9050919050565b600080600080600080600187815481106106f657fe5b906000526020600020906002020190508060010160009054906101000a900467ffffffffffffffff1667ffffffffffffffff1694508060010160089054906101000a900463ffffffff1663ffffffff16935080600101600c9054906101000a900463ffffffff1663ffffffff1692508060010160109054906101000a900461ffff1661ffff169150806000015495505091939590929450565b60045481565b60008273ffffffffffffffffffffffffffffffffffffffff166002600084815260200190815260200160002060009054906101000a900473ffffffffffffffffffffffffffffffffffffffff1673ffffffffffffffffffffffffffffffffffffffff1614905092915050565b600360008373ffffffffffffffffffffffffffffffffffffffff1673ffffffffffffffffffffffffffffffffffffffff16815260200190815260200160002060008154809291906001019190505550816002600083815260200190815260200160002060006101000a81548173ffffffffffffffffffffffffffffffffffffffff021916908373ffffffffffffffffffffffffffffffffffffffff160217905550600073ffffffffffffffffffffffffffffffffffffffff168373ffffffffffffffffffffffffffffffffffffffff161461092757600360008473ffffffffffffffffffffffffffffffffffffffff1673ffffffffffffffffffffffffffffffffffffffff16815260200190815260200160002060008154809291906001900391905055505b808273ffffffffffffffffffffffffffffffffffffffff168473ffffffffffffffffffffffffffffffffffffffff167fddf252ad1be2c89b69c2b068fc378daa952ba7f163c4a11628f55a4df523b3ef60405160405180910390a4505050565b6000610991610b58565b6040518060a001604052808581526020014267ffffffffffffffff1681526020018863ffffffff1681526020018763ffffffff1681526020018661ffff168152509050600181908060018154018082558091505090600182039060005260206000209060020201600090919290919091506000820151816000015560208201518160010160006101000a81548167ffffffffffffffff021916908367ffffffffffffffff16021790555060408201518160010160086101000a81548163ffffffff021916908363ffffffff160217905550606082015181600101600c6101000a81548163ffffffff021916908363ffffffff16021790555060808201518160010160106101000a81548161ffff021916908361ffff1602179055505050506000600180805490500390507f0a5311bd2a6608f08a180df2ee7c5946819a649b204b554bb8e39825b2c50ad584828a8a89604051808673ffffffffffffffffffffffffffffffffffffffff1673ffffffffffffffffffffffffffffffffffffffff1681526020018581526020018481526020018381526020018281526020019550505050505060405180910390a1610b4a60008583610801565b809250505095945050505050565b6040518060a0016040528060008152602001600067ffffffffffffffff168152602001600063ffffffff168152602001600063ffffffff168152602001600061ffff168152509056fe437573746f6d20596f75204e6f74204f776e6572204d65737361676520486572652ea265627a7a72315820f623a8eb7b7204b78b157e760936cecbb9250335f8c347b3180b7c7a5fc39e0664736f6c63430005100032",
  "source": "// SPDX-License-Identifier: GPL-3.0\r\n\r\npragma solidity >=0.5.16 <0.9.0;  // pragma solidity ^0.5.12; //Hashlips prefers ^0.8.0 (this version & up) https://youtu.be/sngKPYfUgkc?t=1350\r\n    // Error: Truffle is currently using solc 0.5.16, but one or more of your contracts specify \"pragma solidity >=0.7.0 <0.9.0\".\r\n    //Please update your truffle config or pragma statement(s).\r\n    //(See https://trufflesuite.com/docs/truffle/reference/configuration#compiler-configuration for information on\r\n    //configuring Truffle to use a specific solc compiler version.)\r\n\r\nimport \"./IERC721.sol\";\r\n// import ownable contract\r\nimport \"./Ownable.sol\";     /* (2:05): https://academy.moralis.io/lessons/solution-new-get-kitty-assignment */\r\n\r\n\r\ncontract Kittycontract is IERC721, Ownable {\r\n\r\n    uint256 public constant CREATION_LIMIT_GEN0 = 10; \r\n    string public constant name = \"DegenKitties\";\r\n    string public constant symbol = \"DK\";\r\n\r\n     /*Added event (7:10): https://academy.moralis.io/lessons/create-kitty-function */\r\n     event Birth(address owner, uint256 kittenId, uint256 mumId, uint256 dadId, uint256 genes);\r\n\r\n    struct Kitty {          /* Same fields real Crypto Kitties has in their struct */\r\n        uint256 genes; \r\n        uint64 birthTime; \r\n        uint32 mumId; \r\n        uint32 dadId; \r\n        uint16 generation;\r\n    }\r\n\r\n    Kitty[] kitties; /* Array store the instance of this struct. Actual Object. They will be the actual Tokens */\r\n\r\n    \r\n    mapping (uint256 => address) public kittyIndexToOwner; /* Takes kitty ID; returns owner of that NFT Kat */ \r\n    mapping (address => uint256) ownershipTokenCount; /* Kitties Owned By Address: balanceOf function needs balance mapping to return balance of owner */\r\n\r\n\r\n /*createKittyGen0 function: https://academy.moralis.io/lessons/solution-new-get-kitty-assignment */\r\n    /* uint256 public constant CREATION_LIMIT_GEN0 = 10; */\r\n    uint256 public gen0Counter;\r\n\r\n\r\n/*GetKitty Solution added getKitty: https://academy.moralis.io/lessons/getkitty-solution  */\r\n    function getKitty(uint256 _id) external view returns (\r\n        uint256 genes,\r\n        uint256 birthTime,\r\n        uint256 mumId,\r\n        uint256 dadId,\r\n        uint256 generation\r\n        // address owner  // owner NOT in the Kitty Struct defined above.\r\n    )\r\n     {\r\n         Kitty storage kitty = kitties[_id]; // saved as a pointer. Use storage instead memory (less space) (1:36): https://academy.moralis.io/lessons/getkitty-solution\r\n\r\n         birthTime = uint256(kitty.birthTime);\r\n         mumId = uint256(kitty.mumId);\r\n         dadId = uint256(kitty.dadId); \r\n         generation = uint256(kitty.generation);\r\n         genes = kitty.genes;  \r\n\r\n        //  return (genes, birthTime, mumId, dadId, generation); //Alternate solution (00:58): https://academy.moralis.io/lessons/getkitty-solution\r\n     }\r\n\r\n    function createKittyGen0(uint256 _genes) public onlyOwner returns (uint256) {\r\n           //receives genes from front end. \r\n           require(gen0Counter < CREATION_LIMIT_GEN0); /*Created constant above, set to 10 max gen0's */\r\n\r\n            gen0Counter++; \r\n\r\n            //Gen0 have no owners, they are owned by contract\r\n            return _createKitty(0, 0, 0, _genes, msg.sender);  //address(this) the contract?\r\n    }\r\n\r\n            /*Added: https://academy.moralis.io/lessons/create-kitty-function \r\n             _createKitty internal fn. Used to create kitty 0 as well as subsequent breeds. Returns Kat ID  */  \r\n    function _createKitty(\r\n        uint256 _mumId, \r\n        uint256 _dadId,\r\n        uint256 _generation,\r\n        uint256 _genes,\r\n        address _owner\r\n    ) private returns (uint256) {   /*Internal, can be private since no inheritence */\r\n        /*Added Kitty from struct (3:13): https://academy.moralis.io/lessons/create-kitty-function */\r\n        Kitty memory _kitty = Kitty({   \r\n            genes: _genes,\r\n            // birthTime: uint64(now),  // Per Mac VS Code Error Message\r\n            birthTime: uint64(block.timestamp),\r\n            mumId: uint32(_mumId),\r\n            dadId: uint32(_dadId),\r\n            generation: uint16(_generation)\r\n        });\r\n\r\n        // uint256 newKittenId = kitties.push(_kitty) -1; //Per: https://ethereum.stackexchange.com/questions/89792/typeerror-different-number-of-components-either-side-of-equation\r\n        kitties.push(_kitty);\r\n        uint256 newKittenId = kitties.length - 1;\r\n\r\n\r\n        emit Birth(_owner, newKittenId, _mumId, _dadId, _genes); /*Added event (8:22): https://academy.moralis.io/lessons/create-kitty-function */\r\n\r\n        /*Added internal _transfer (5:53): https://academy.moralis.io/lessons/create-kitty-function */\r\n        _transfer(address(0), _owner, newKittenId);\r\n\r\n        return newKittenId; \r\n\r\n    }\r\n\r\n\r\n    function balanceOf(address owner) external view returns (uint256 balance){\r\n         /* return balance[owner]; */\r\n         return ownershipTokenCount[owner];\r\n    }\r\n\r\n\r\n/*Explained: https://academy.moralis.io/lessons/token-code-migration-walkthrough */\r\n\r\n    /* function totalSupply() external view returns (uint256 total){ */\r\n    function totalSupply() public view returns (uint){    \r\n         return kitties.length; \r\n    }\r\n\r\n    /* function ownerOf(uint256 tokenId) external view returns (address owner){ */\r\n    function ownerOf(uint256 _tokenId) external view returns (address){      /* less gas call external fn. not from within this k. */\r\n         return kittyIndexToOwner[_tokenId]; \r\n    } \r\n\r\n/* Break transfer fn into two. (1) external, (2) _transfer internal */\r\n   /* function transfer(address to, uint256 tokenId) external{ */\r\n    function transfer(address _to,uint256 _tokenId) external{\r\n        require(_to != address(0));     \r\n        require(_to != address(this)); \r\n        require(_owns(msg.sender, _tokenId));  /* see custom _owns function below true/false */\r\n\r\n        _transfer(msg.sender, _to, _tokenId); \r\n    }\r\n\r\n    function _transfer(address _from, address _to, uint256 _tokenId) internal {\r\n        ownershipTokenCount[_to]++; \r\n\r\n        kittyIndexToOwner[_tokenId] = _to;\r\n\r\n        if(_from != address(0)){\r\n            ownershipTokenCount[_from]--;\r\n        }\r\n\r\n        // Emit the transfer event.\r\n        emit Transfer(_from, _to, _tokenId);\r\n    }\r\n\r\n\r\n    function _owns(address _claimant, uint256 _tokenId) internal view returns (bool) {\r\n        return kittyIndexToOwner[_tokenId] == _claimant; \r\n    }\r\n\r\n\r\n} /*end of Kittycontract */",
  "sourcePath": "C:/Users/IanBates/Documents/BlockChain Dev/0a_Moralis_2022_CM/nft-marketplace/academy-kitties-template/academy-kitties-template/contracts/Kittycontract.sol",
  "compiler": {
    "name": "solc",
    "version": "0.5.16+commit.9c3226ce.Emscripten.clang"
  },
  "schemaVersion": "3.4.0",
  "updatedAt": "2023-01-17T00:34:39.595Z",
  "networkType": "ethereum",
  "devdoc": {
    "methods": {}
  },
  "userdoc": {
    "methods": {}
  }
}