{
  "contractName": "Kittycontract",
  "abi": [
    {
      "anonymous": false,
      "inputs": [
        {
          "indexed": true,
          "internalType": "address",
          "name": "owner",
          "type": "address"
        },
        {
          "indexed": true,
          "internalType": "address",
          "name": "approved",
          "type": "address"
        },
        {
          "indexed": true,
          "internalType": "uint256",
          "name": "tokenId",
          "type": "uint256"
        }
      ],
      "name": "Approval",
      "type": "event"
    },
    {
      "anonymous": false,
      "inputs": [
        {
          "indexed": true,
          "internalType": "address",
          "name": "owner",
          "type": "address"
        },
        {
          "indexed": true,
          "internalType": "address",
          "name": "operator",
          "type": "address"
        },
        {
          "indexed": false,
          "internalType": "bool",
          "name": "approved",
          "type": "bool"
        }
      ],
      "name": "ApprovalForAll",
      "type": "event"
    },
    {
      "anonymous": false,
      "inputs": [
        {
          "indexed": false,
          "internalType": "address",
          "name": "owner",
          "type": "address"
        },
        {
          "indexed": false,
          "internalType": "uint256",
          "name": "kittenId",
          "type": "uint256"
        },
        {
          "indexed": false,
          "internalType": "uint256",
          "name": "mumId",
          "type": "uint256"
        },
        {
          "indexed": false,
          "internalType": "uint256",
          "name": "dadId",
          "type": "uint256"
        },
        {
          "indexed": false,
          "internalType": "uint256",
          "name": "genes",
          "type": "uint256"
        }
      ],
      "name": "Birth",
      "type": "event"
    },
    {
      "anonymous": false,
      "inputs": [
        {
          "indexed": true,
          "internalType": "address",
          "name": "from",
          "type": "address"
        },
        {
          "indexed": true,
          "internalType": "address",
          "name": "to",
          "type": "address"
        },
        {
          "indexed": true,
          "internalType": "uint256",
          "name": "tokenId",
          "type": "uint256"
        }
      ],
      "name": "Transfer",
      "type": "event"
    },
    {
      "constant": true,
      "inputs": [],
      "name": "CREATION_LIMIT_GEN0",
      "outputs": [
        {
          "internalType": "uint256",
          "name": "",
          "type": "uint256"
        }
      ],
      "payable": false,
      "stateMutability": "view",
      "type": "function"
    },
    {
      "constant": true,
      "inputs": [],
      "name": "gen0Counter",
      "outputs": [
        {
          "internalType": "uint256",
          "name": "",
          "type": "uint256"
        }
      ],
      "payable": false,
      "stateMutability": "view",
      "type": "function"
    },
    {
      "constant": true,
      "inputs": [
        {
          "internalType": "uint256",
          "name": "",
          "type": "uint256"
        }
      ],
      "name": "kittyIndexToApproved",
      "outputs": [
        {
          "internalType": "address",
          "name": "",
          "type": "address"
        }
      ],
      "payable": false,
      "stateMutability": "view",
      "type": "function"
    },
    {
      "constant": true,
      "inputs": [
        {
          "internalType": "uint256",
          "name": "",
          "type": "uint256"
        }
      ],
      "name": "kittyIndexToOwner",
      "outputs": [
        {
          "internalType": "address",
          "name": "",
          "type": "address"
        }
      ],
      "payable": false,
      "stateMutability": "view",
      "type": "function"
    },
    {
      "constant": true,
      "inputs": [],
      "name": "name",
      "outputs": [
        {
          "internalType": "string",
          "name": "",
          "type": "string"
        }
      ],
      "payable": false,
      "stateMutability": "view",
      "type": "function"
    },
    {
      "constant": true,
      "inputs": [],
      "name": "symbol",
      "outputs": [
        {
          "internalType": "string",
          "name": "",
          "type": "string"
        }
      ],
      "payable": false,
      "stateMutability": "view",
      "type": "function"
    },
    {
      "constant": false,
      "inputs": [
        {
          "internalType": "address",
          "name": "_from",
          "type": "address"
        },
        {
          "internalType": "address",
          "name": "_to",
          "type": "address"
        },
        {
          "internalType": "uint256",
          "name": "_tokenId",
          "type": "uint256"
        }
      ],
      "name": "safeTransferFrom",
      "outputs": [],
      "payable": false,
      "stateMutability": "nonpayable",
      "type": "function"
    },
    {
      "constant": false,
      "inputs": [
        {
          "internalType": "address",
          "name": "_from",
          "type": "address"
        },
        {
          "internalType": "address",
          "name": "_to",
          "type": "address"
        },
        {
          "internalType": "uint256",
          "name": "_tokenId",
          "type": "uint256"
        },
        {
          "internalType": "bytes",
          "name": "data",
          "type": "bytes"
        }
      ],
      "name": "safeTransferFrom",
      "outputs": [],
      "payable": false,
      "stateMutability": "nonpayable",
      "type": "function"
    },
    {
      "constant": false,
      "inputs": [
        {
          "internalType": "address",
          "name": "_from",
          "type": "address"
        },
        {
          "internalType": "address",
          "name": "_to",
          "type": "address"
        },
        {
          "internalType": "uint256",
          "name": "_tokenId",
          "type": "uint256"
        }
      ],
      "name": "transferFrom",
      "outputs": [],
      "payable": false,
      "stateMutability": "nonpayable",
      "type": "function"
    },
    {
      "constant": false,
      "inputs": [
        {
          "internalType": "address",
          "name": "_to",
          "type": "address"
        },
        {
          "internalType": "uint256",
          "name": "_tokenId",
          "type": "uint256"
        }
      ],
      "name": "approve",
      "outputs": [],
      "payable": false,
      "stateMutability": "nonpayable",
      "type": "function"
    },
    {
      "constant": false,
      "inputs": [
        {
          "internalType": "address",
          "name": "operator",
          "type": "address"
        },
        {
          "internalType": "bool",
          "name": "approved",
          "type": "bool"
        }
      ],
      "name": "setApprovalForAll",
      "outputs": [],
      "payable": false,
      "stateMutability": "nonpayable",
      "type": "function"
    },
    {
      "constant": true,
      "inputs": [
        {
          "internalType": "uint256",
          "name": "tokenId",
          "type": "uint256"
        }
      ],
      "name": "getApproved",
      "outputs": [
        {
          "internalType": "address",
          "name": "",
          "type": "address"
        }
      ],
      "payable": false,
      "stateMutability": "view",
      "type": "function"
    },
    {
      "constant": true,
      "inputs": [
        {
          "internalType": "address",
          "name": "_owner",
          "type": "address"
        },
        {
          "internalType": "address",
          "name": "_operator",
          "type": "address"
        }
      ],
      "name": "isApprovedForAll",
      "outputs": [
        {
          "internalType": "bool",
          "name": "",
          "type": "bool"
        }
      ],
      "payable": false,
      "stateMutability": "view",
      "type": "function"
    },
    {
      "constant": true,
      "inputs": [
        {
          "internalType": "uint256",
          "name": "_id",
          "type": "uint256"
        }
      ],
      "name": "getKitty",
      "outputs": [
        {
          "internalType": "uint256",
          "name": "genes",
          "type": "uint256"
        },
        {
          "internalType": "uint256",
          "name": "birthTime",
          "type": "uint256"
        },
        {
          "internalType": "uint256",
          "name": "mumId",
          "type": "uint256"
        },
        {
          "internalType": "uint256",
          "name": "dadId",
          "type": "uint256"
        },
        {
          "internalType": "uint256",
          "name": "generation",
          "type": "uint256"
        }
      ],
      "payable": false,
      "stateMutability": "view",
      "type": "function"
    },
    {
      "constant": false,
      "inputs": [
        {
          "internalType": "uint256",
          "name": "_genes",
          "type": "uint256"
        }
      ],
      "name": "createKittyGen0",
      "outputs": [
        {
          "internalType": "uint256",
          "name": "",
          "type": "uint256"
        }
      ],
      "payable": false,
      "stateMutability": "nonpayable",
      "type": "function"
    },
    {
      "constant": true,
      "inputs": [
        {
          "internalType": "address",
          "name": "owner",
          "type": "address"
        }
      ],
      "name": "balanceOf",
      "outputs": [
        {
          "internalType": "uint256",
          "name": "balance",
          "type": "uint256"
        }
      ],
      "payable": false,
      "stateMutability": "view",
      "type": "function"
    },
    {
      "constant": true,
      "inputs": [],
      "name": "totalSupply",
      "outputs": [
        {
          "internalType": "uint256",
          "name": "",
          "type": "uint256"
        }
      ],
      "payable": false,
      "stateMutability": "view",
      "type": "function"
    },
    {
      "constant": true,
      "inputs": [
        {
          "internalType": "uint256",
          "name": "_tokenId",
          "type": "uint256"
        }
      ],
      "name": "ownerOf",
      "outputs": [
        {
          "internalType": "address",
          "name": "",
          "type": "address"
        }
      ],
      "payable": false,
      "stateMutability": "view",
      "type": "function"
    },
    {
      "constant": false,
      "inputs": [
        {
          "internalType": "address",
          "name": "_to",
          "type": "address"
        },
        {
          "internalType": "uint256",
          "name": "_tokenId",
          "type": "uint256"
        }
      ],
      "name": "transfer",
      "outputs": [],
      "payable": false,
      "stateMutability": "nonpayable",
      "type": "function"
    }
  ],
  "bytecode": "0x6080604052336000806101000a81548173ffffffffffffffffffffffffffffffffffffffff021916908373ffffffffffffffffffffffffffffffffffffffff160217905550611466806100536000396000f3fe608060405234801561001057600080fd5b50600436106101215760003560e01c806395d89b41116100ad578063b88d4fde11610071578063b88d4fde14610640578063d5a776ca14610703578063e985e9c514610745578063e98b7f4d146107c1578063ef5e94aa1461081f57610121565b806395d89b4114610493578063a22cb46514610516578063a45f4bfc14610566578063a9059cbb146105d4578063b48343301461062257610121565b806323b872dd116100f457806323b872dd1461028357806342842e0e146102f1578063481af3d31461035f5780636352211e146103cd57806370a082311461043b57610121565b806306fdde0314610126578063081812fc146101a9578063095ea7b31461021757806318160ddd14610265575b600080fd5b61012e61083d565b6040518080602001828103825283818151815260200191508051906020019080838360005b8381101561016e578082015181840152602081019050610153565b50505050905090810190601f16801561019b5780820380516001836020036101000a031916815260200191505b509250505060405180910390f35b6101d5600480360360208110156101bf57600080fd5b8101908080359060200190929190505050610876565b604051808273ffffffffffffffffffffffffffffffffffffffff1673ffffffffffffffffffffffffffffffffffffffff16815260200191505060405180910390f35b6102636004803603604081101561022d57600080fd5b81019080803573ffffffffffffffffffffffffffffffffffffffff169060200190929190803590602001909291905050506108c4565b005b61026d610940565b6040518082815260200191505060405180910390f35b6102ef6004803603606081101561029957600080fd5b81019080803573ffffffffffffffffffffffffffffffffffffffff169060200190929190803573ffffffffffffffffffffffffffffffffffffffff1690602001909291908035906020019092919050505061094d565b005b61035d6004803603606081101561030757600080fd5b81019080803573ffffffffffffffffffffffffffffffffffffffff169060200190929190803573ffffffffffffffffffffffffffffffffffffffff16906020019092919080359060200190929190505050610a15565b005b61038b6004803603602081101561037557600080fd5b8101908080359060200190929190505050610a1a565b604051808273ffffffffffffffffffffffffffffffffffffffff1673ffffffffffffffffffffffffffffffffffffffff16815260200191505060405180910390f35b6103f9600480360360208110156103e357600080fd5b8101908080359060200190929190505050610a4d565b604051808273ffffffffffffffffffffffffffffffffffffffff1673ffffffffffffffffffffffffffffffffffffffff16815260200191505060405180910390f35b61047d6004803603602081101561045157600080fd5b81019080803573ffffffffffffffffffffffffffffffffffffffff169060200190929190505050610a8a565b6040518082815260200191505060405180910390f35b61049b610ad3565b6040518080602001828103825283818151815260200191508051906020019080838360005b838110156104db5780820151818401526020810190506104c0565b50505050905090810190601f1680156105085780820380516001836020036101000a031916815260200191505b509250505060405180910390f35b6105646004803603604081101561052c57600080fd5b81019080803573ffffffffffffffffffffffffffffffffffffffff169060200190929190803515159060200190929190505050610b0c565b005b6105926004803603602081101561057c57600080fd5b8101908080359060200190929190505050610c46565b604051808273ffffffffffffffffffffffffffffffffffffffff1673ffffffffffffffffffffffffffffffffffffffff16815260200191505060405180910390f35b610620600480360360408110156105ea57600080fd5b81019080803573ffffffffffffffffffffffffffffffffffffffff16906020019092919080359060200190929190505050610c79565b005b61062a610d0e565b6040518082815260200191505060405180910390f35b6107016004803603608081101561065657600080fd5b81019080803573ffffffffffffffffffffffffffffffffffffffff169060200190929190803573ffffffffffffffffffffffffffffffffffffffff16906020019092919080359060200190929190803590602001906401000000008111156106bd57600080fd5b8201836020820111156106cf57600080fd5b803590602001918460018302840111640100000000831117156106f157600080fd5b9091929391929390505050610d13565b005b61072f6004803603602081101561071957600080fd5b8101908080359060200190929190505050610d1a565b6040518082815260200191505060405180910390f35b6107a76004803603604081101561075b57600080fd5b81019080803573ffffffffffffffffffffffffffffffffffffffff169060200190929190803573ffffffffffffffffffffffffffffffffffffffff169060200190929190505050610df8565b604051808215151515815260200191505060405180910390f35b6107ed600480360360208110156107d757600080fd5b8101908080359060200190929190505050610e8c565b604051808681526020018581526020018481526020018381526020018281526020019550505050505060405180910390f35b610827610f3b565b6040518082815260200191505060405180910390f35b6040518060400160405280600c81526020017f446567656e4b697474696573000000000000000000000000000000000000000081525081565b6000600180549050821061088957600080fd5b6004600083815260200190815260200160002060009054906101000a900473ffffffffffffffffffffffffffffffffffffffff169050919050565b6108ce3382610f41565b6108d757600080fd5b6108e18183610fad565b808273ffffffffffffffffffffffffffffffffffffffff163373ffffffffffffffffffffffffffffffffffffffff167f8c5be1e5ebec7d5bd14f71427d1e84f3dd0314c0f7b2291e5b200ac8c7c3b92560405160405180910390a45050565b6000600180549050905090565b600073ffffffffffffffffffffffffffffffffffffffff168273ffffffffffffffffffffffffffffffffffffffff16141561098757600080fd5b8273ffffffffffffffffffffffffffffffffffffffff163373ffffffffffffffffffffffffffffffffffffffff1614806109c757506109c63382611003565b5b806109d857506109d78333610df8565b5b6109e157600080fd5b6109eb8382610f41565b6109f457600080fd5b6001805490508110610a0557600080fd5b610a1083838361106f565b505050565b505050565b60046020528060005260406000206000915054906101000a900473ffffffffffffffffffffffffffffffffffffffff1681565b60006002600083815260200190815260200160002060009054906101000a900473ffffffffffffffffffffffffffffffffffffffff169050919050565b6000600360008373ffffffffffffffffffffffffffffffffffffffff1673ffffffffffffffffffffffffffffffffffffffff168152602001908152602001600020549050919050565b6040518060400160405280600281526020017f444b00000000000000000000000000000000000000000000000000000000000081525081565b3373ffffffffffffffffffffffffffffffffffffffff168273ffffffffffffffffffffffffffffffffffffffff161415610b4557600080fd5b80600560003373ffffffffffffffffffffffffffffffffffffffff1673ffffffffffffffffffffffffffffffffffffffff16815260200190815260200160002060008473ffffffffffffffffffffffffffffffffffffffff1673ffffffffffffffffffffffffffffffffffffffff16815260200190815260200160002060006101000a81548160ff0219169083151502179055508173ffffffffffffffffffffffffffffffffffffffff163373ffffffffffffffffffffffffffffffffffffffff167f17307eab39ab6107e8899845ad3d59bd9653f200f220920489ca2b5937696c3183604051808215151515815260200191505060405180910390a35050565b60026020528060005260406000206000915054906101000a900473ffffffffffffffffffffffffffffffffffffffff1681565b600073ffffffffffffffffffffffffffffffffffffffff168273ffffffffffffffffffffffffffffffffffffffff161415610cb357600080fd5b3073ffffffffffffffffffffffffffffffffffffffff168273ffffffffffffffffffffffffffffffffffffffff161415610cec57600080fd5b610cf63382610f41565b610cff57600080fd5b610d0a33838361106f565b5050565b600a81565b5050505050565b60003373ffffffffffffffffffffffffffffffffffffffff166000809054906101000a900473ffffffffffffffffffffffffffffffffffffffff1673ffffffffffffffffffffffffffffffffffffffff1614610dc1576040517f08c379a00000000000000000000000000000000000000000000000000000000081526004018080602001828103825260228152602001806114106022913960400191505060405180910390fd5b600a60065410610dd057600080fd5b600660008154809291906001019190505550610df1600080600085336111f5565b9050919050565b6000600560008473ffffffffffffffffffffffffffffffffffffffff1673ffffffffffffffffffffffffffffffffffffffff16815260200190815260200160002060008373ffffffffffffffffffffffffffffffffffffffff1673ffffffffffffffffffffffffffffffffffffffff16815260200190815260200160002060009054906101000a900460ff16905092915050565b60008060008060008060018781548110610ea257fe5b906000526020600020906002020190508060010160009054906101000a900467ffffffffffffffff1667ffffffffffffffff1694508060010160089054906101000a900463ffffffff1663ffffffff16935080600101600c9054906101000a900463ffffffff1663ffffffff1692508060010160109054906101000a900461ffff1661ffff169150806000015495505091939590929450565b60065481565b60008273ffffffffffffffffffffffffffffffffffffffff166002600084815260200190815260200160002060009054906101000a900473ffffffffffffffffffffffffffffffffffffffff1673ffffffffffffffffffffffffffffffffffffffff1614905092915050565b806004600084815260200190815260200160002060006101000a81548173ffffffffffffffffffffffffffffffffffffffff021916908373ffffffffffffffffffffffffffffffffffffffff1602179055505050565b60008273ffffffffffffffffffffffffffffffffffffffff166004600084815260200190815260200160002060009054906101000a900473ffffffffffffffffffffffffffffffffffffffff1673ffffffffffffffffffffffffffffffffffffffff1614905092915050565b600360008373ffffffffffffffffffffffffffffffffffffffff1673ffffffffffffffffffffffffffffffffffffffff16815260200190815260200160002060008154809291906001019190505550816002600083815260200190815260200160002060006101000a81548173ffffffffffffffffffffffffffffffffffffffff021916908373ffffffffffffffffffffffffffffffffffffffff160217905550600073ffffffffffffffffffffffffffffffffffffffff168373ffffffffffffffffffffffffffffffffffffffff161461119557600360008473ffffffffffffffffffffffffffffffffffffffff1673ffffffffffffffffffffffffffffffffffffffff16815260200190815260200160002060008154809291906001900391905055505b808273ffffffffffffffffffffffffffffffffffffffff168473ffffffffffffffffffffffffffffffffffffffff167fddf252ad1be2c89b69c2b068fc378daa952ba7f163c4a11628f55a4df523b3ef60405160405180910390a4505050565b60006111ff6113c6565b6040518060a001604052808581526020014267ffffffffffffffff1681526020018863ffffffff1681526020018763ffffffff1681526020018661ffff168152509050600181908060018154018082558091505090600182039060005260206000209060020201600090919290919091506000820151816000015560208201518160010160006101000a81548167ffffffffffffffff021916908367ffffffffffffffff16021790555060408201518160010160086101000a81548163ffffffff021916908363ffffffff160217905550606082015181600101600c6101000a81548163ffffffff021916908363ffffffff16021790555060808201518160010160106101000a81548161ffff021916908361ffff1602179055505050506000600180805490500390507f0a5311bd2a6608f08a180df2ee7c5946819a649b204b554bb8e39825b2c50ad584828a8a89604051808673ffffffffffffffffffffffffffffffffffffffff1673ffffffffffffffffffffffffffffffffffffffff1681526020018581526020018481526020018381526020018281526020019550505050505060405180910390a16113b86000858361106f565b809250505095945050505050565b6040518060a0016040528060008152602001600067ffffffffffffffff168152602001600063ffffffff168152602001600063ffffffff168152602001600061ffff168152509056fe437573746f6d20596f75204e6f74204f776e6572204d65737361676520486572652ea265627a7a7231582063db8f6617d376a46e004e543c6a9a4ee5f5cadea3dc2c085aae9f2f1359b8d964736f6c63430005100032",
  "source": "// SPDX-License-Identifier: GPL-3.0\n\npragma solidity >=0.5.16 <0.9.0;  // pragma solidity ^0.5.12; //Hashlips prefers ^0.8.0 (this version & up) https://youtu.be/sngKPYfUgkc?t=1350\n    // Error: Truffle is currently using solc 0.5.16, but one or more of your contracts specify \"pragma solidity >=0.7.0 <0.9.0\".\n    //Please update your truffle config or pragma statement(s).\n    //(See https://trufflesuite.com/docs/truffle/reference/configuration#compiler-configuration for information on\n    //configuring Truffle to use a specific solc compiler version.)\n\nimport \"./IERC721.sol\"; \n// import ownable contract\nimport \"./Ownable.sol\";     /* (2:05): https://academy.moralis.io/lessons/solution-new-get-kitty-assignment */\n\nimport \"./IERC721Receiver.sol\"; //IERC721Receiver\n\ncontract Kittycontract is IERC721, Ownable {\n\n    uint256 public constant CREATION_LIMIT_GEN0 = 10; \n    string public constant name = \"DegenKitties\";\n    string public constant symbol = \"DK\";\n    bytes4 internal constant MAGIC_ERC721_RECEIVED = bytes4(keccak256(\"onERC721Received(address,address,uint256,bytes)\")); // bytes4 constant (8:10) https://academy.moralis.io/lessons/assignment-safetransfer-implementation\n// bytes4 internal constant = bytes4(keccak256(\"onERC721Received(address,address,uint256,bytes)\")); \n\n     /*Added event (7:10): https://academy.moralis.io/lessons/create-kitty-function */\n     event Birth(address owner, uint256 kittenId, uint256 mumId, uint256 dadId, uint256 genes);\n\n    struct Kitty {          /* Same fields real Crypto Kitties has in their struct */\n        uint256 genes; \n        uint64 birthTime; \n        uint32 mumId; \n        uint32 dadId; \n        uint16 generation;\n    }\n\n    Kitty[] kitties; /* Array store the instance of this struct. Actual Object. They will be the actual Tokens */\n\n    \n    mapping (uint256 => address) public kittyIndexToOwner; /* Takes kitty ID; returns owner of that NFT Kat */ \n    mapping (address => uint256) ownershipTokenCount; /* Kitties Owned By Address: balanceOf function needs balance mapping to return balance of owner */\n    mapping (uint256 => address) public kittyIndexToApproved; // (1:35): https://academy.moralis.io/lessons/erc721-fulfillment-approval\n    //(4:15): https://academy.moralis.io/lessons/erc721-fulfillment-approval\n    //My Address => Operator Address => TRUE/FALSE\n    //check with _operatorApprovals[MYADDR][OPERATORADDR] = true/false; \n    mapping (address => mapping (address => bool)) private _operatorApprovals; \n\n /*createKittyGen0 function: https://academy.moralis.io/lessons/solution-new-get-kitty-assignment */\n    /* uint256 public constant CREATION_LIMIT_GEN0 = 10; */\n    uint256 public gen0Counter;\n\n\n//Safe Transfer from: https://academy.moralis.io/lessons/assignment-erc721-fulfillment-transferfrom\n\n    function safeTransferFrom(address _from, address _to, uint256 _tokenId, bytes calldata data) external {\n\n    }\n\n\n    function safeTransferFrom(address _from, address _to, uint256 _tokenId) external {\n\n    }\n\n\n\n//internal _safeTransfer in https://academy.moralis.io/lessons/assignment-safetransfer-implementation\n                    // data is optional parameter we can send data to whoever we transfer to (1:05)\n    function _safeTransfer(address _from, address _to, uint256 _tokenId, bytes memory _data) internal {\n        _transfer(_from, _to, _tokenId);\n        require( _checkERC721Support(_from, _to, _tokenId, _data) ); \n\n    }\n\n    function transferFrom(address _from, address _to, uint256 _tokenId) external {\n        require(_to != address(0)); //check to address is not addy zero.\n\n            // check sender is owner    or sender has approval for tokenId   or msg.sender is an operator for from  (1:05)\n        require(msg.sender == _from || _approvedFor(msg.sender, _tokenId) || isApprovedForAll(_from, msg.sender)); \n\n        require(_owns(_from, _tokenId)); \n\n        require(_tokenId < kitties.length); \n\n         _transfer(_from, _to, _tokenId);\n    }\n\n\n\n// Approval function solutions from: https://academy.moralis.io/lessons/erc721-fulfillment-approval-solution\n    function approve(address _to, uint256 _tokenId) public {\n        require(_owns(msg.sender, _tokenId)); //sender owns token\n\n        _approve(_tokenId, _to); //our own internal _approve function below\n        // approve(_tokenId, _to);\n        emit Approval(msg.sender, _to, _tokenId);  \n    }\n\n    function setApprovalForAll(address operator, bool approved) public {\n        require(operator != msg.sender);\n\n        _operatorApprovals[msg.sender][operator] = approved; //internal fn below\n        emit ApprovalForAll(msg.sender, operator, approved); \n    }\n\n    function getApproved(uint256 tokenId) public view returns (address) {\n        require(tokenId < kitties.length); //Token must exist\n\n        return kittyIndexToApproved[tokenId]; \n    }\n\n// _CHANGE isApprovedForAll from external to PUBLIC removed this error(?)\n//VS error: Undeclared identifier. \"isApprovedForAll\" is not (or not yet) visible at this point. [63, 78]\n// https://ethereum.stackexchange.com/questions/66138/declarationerror-undeclared-identifier-value-is-not-or-not-yet-visible-at\n    // function isApprovedForAll(address _owner, address _operator) external view returns (bool) { //make external to public\n    function isApprovedForAll(address _owner, address _operator) public view returns (bool) {\n        return _operatorApprovals[_owner][_operator]; //his removed underscore\n    }\n\n\n\n/*GetKitty Solution added getKitty: https://academy.moralis.io/lessons/getkitty-solution  */\n    function getKitty(uint256 _id) external view returns (\n        uint256 genes,\n        uint256 birthTime,\n        uint256 mumId,\n        uint256 dadId,\n        uint256 generation\n        // address owner  // owner NOT in the Kitty Struct defined above.\n    )\n     {\n         Kitty storage kitty = kitties[_id]; // saved as a pointer. Use storage instead memory (less space) (1:36): https://academy.moralis.io/lessons/getkitty-solution\n\n         birthTime = uint256(kitty.birthTime);\n         mumId = uint256(kitty.mumId);\n         dadId = uint256(kitty.dadId); \n         generation = uint256(kitty.generation);\n         genes = kitty.genes;  \n\n        //  return (genes, birthTime, mumId, dadId, generation); //Alternate solution (00:58): https://academy.moralis.io/lessons/getkitty-solution\n     }\n\n    function createKittyGen0(uint256 _genes) public onlyOwner returns (uint256) {\n           //receives genes from front end. \n           require(gen0Counter < CREATION_LIMIT_GEN0); /*Created constant above, set to 10 max gen0's */\n\n            gen0Counter++; \n\n            //Gen0 have no owners, they are owned by contract\n            return _createKitty(0, 0, 0, _genes, msg.sender);  //address(this) the contract?\n    }\n\n            /*Added: https://academy.moralis.io/lessons/create-kitty-function \n             _createKitty internal fn. Used to create kitty 0 as well as subsequent breeds. Returns Kat ID  */  \n    function _createKitty(\n        uint256 _mumId, \n        uint256 _dadId,\n        uint256 _generation,\n        uint256 _genes,\n        address _owner\n    ) private returns (uint256) {   /*Internal, can be private since no inheritence */\n        /*Added Kitty from struct (3:13): https://academy.moralis.io/lessons/create-kitty-function */\n        Kitty memory _kitty = Kitty({   \n            genes: _genes,\n            // birthTime: uint64(now),  // Per Mac VS Code Error Message\n            birthTime: uint64(block.timestamp),\n            mumId: uint32(_mumId),\n            dadId: uint32(_dadId),\n            generation: uint16(_generation)\n        });\n\n        // uint256 newKittenId = kitties.push(_kitty) -1; //Per: https://ethereum.stackexchange.com/questions/89792/typeerror-different-number-of-components-either-side-of-equation\n        kitties.push(_kitty);\n        uint256 newKittenId = kitties.length - 1;\n\n\n        emit Birth(_owner, newKittenId, _mumId, _dadId, _genes); /*Added event (8:22): https://academy.moralis.io/lessons/create-kitty-function */\n\n        /*Added internal _transfer (5:53): https://academy.moralis.io/lessons/create-kitty-function */\n        _transfer(address(0), _owner, newKittenId);\n\n        return newKittenId; \n\n    }\n\n\n    function balanceOf(address owner) external view returns (uint256 balance){\n         /* return balance[owner]; */\n         return ownershipTokenCount[owner];\n    }\n\n\n/*Explained: https://academy.moralis.io/lessons/token-code-migration-walkthrough */\n\n    /* function totalSupply() external view returns (uint256 total){ */\n    function totalSupply() public view returns (uint){    \n         return kitties.length; \n    }\n\n    /* function ownerOf(uint256 tokenId) external view returns (address owner){ */\n    function ownerOf(uint256 _tokenId) external view returns (address){      /* less gas call external fn. not from within this k. */\n         return kittyIndexToOwner[_tokenId]; \n    } \n\n/* Break transfer fn into two. (1) external, (2) _transfer internal */\n   /* function transfer(address to, uint256 tokenId) external{ */\n    function transfer(address _to,uint256 _tokenId) external{\n        require(_to != address(0));     \n        require(_to != address(this)); \n        require(_owns(msg.sender, _tokenId));  /* see custom _owns function below true/false */\n\n        _transfer(msg.sender, _to, _tokenId); \n    }\n\n    function _transfer(address _from, address _to, uint256 _tokenId) internal {\n        ownershipTokenCount[_to]++; \n\n        kittyIndexToOwner[_tokenId] = _to;\n\n        if(_from != address(0)){\n            ownershipTokenCount[_from]--;\n        }\n\n        // Emit the transfer event.\n        emit Transfer(_from, _to, _tokenId);\n    }\n\n\n    function _owns(address _claimant, uint256 _tokenId) internal view returns (bool) {\n        return kittyIndexToOwner[_tokenId] == _claimant; \n    }\n\n//Internal function to handle the approval process (1:35): https://academy.moralis.io/lessons/erc721-fulfillment-approval-solution\n    function _approve(uint256 _tokenId, address _approved) internal {\n        kittyIndexToApproved[_tokenId] = _approved;\n    }\n\n// _approvedFor solution at (2:02): https://academy.moralis.io/lessons/erc721-fulfillment-transferfrom-assignment-solution\n    function _approvedFor(address _claimant, uint256 _tokenId) internal view returns (bool) {\n        return kittyIndexToApproved[_tokenId] == _claimant;\n    }\n\n\n// At (16:27) we remove `address _from` parameter throwing error in the `truffle compile`: https://academy.moralis.io/lessons/assignment-safetransfer-implementation\n    function _checkERC721Support(address _from, address _to, uint256 _tokenId, bytes memory _data) internal returns (bool){\n        if(_isContract(_to)){\n            //if NOT a smart contract (code size > 0), return true\n            return true; //exits fn here (4:20) https://academy.moralis.io/lessons/assignment-safetransfer-implementation\n        }\n\n                        \n                        //execute onERC721Received function\n                        //How call external contract only know (1) addy and (2) one of its functions\n                        // 6th min: https://academy.moralis.io/lessons/assignment-safetransfer-implementation\n        // FORMAT: Contract(_to).onERC721Received()  //define the function header we need (onERC721Received())    \n// MAKE THE Call onERC721Received                             \n        // bytes4 returnData = IERC721Receiver(_to).onERC721Received(msg.sender, _to, _tokenId, _data); fixed (16:27): https://academy.moralis.io/lessons/assignment-safetransfer-implementation\n        bytes4 returnData = IERC721Receiver(_to).onERC721Received(msg.sender, _from, _tokenId, _data);\n// CHECK THE RETURN VALUE\n        return returnData == MAGIC_ERC721_RECEIVED; // (10:48) if not, throws error: https://academy.moralis.io/lessons/assignment-safetransfer-implementation\n\n    }\n\n\n//  (11:34) https://academy.moralis.io/lessons/assignment-safetransfer-implementation  \n    function _isContract(address _to) view internal returns (bool) {\n        //if smart contract, code size greater zero.  Wallet zero? \n        uint32 size; \n        //Assembly code: \n        assembly{\n            size := extcodesize(_to) //gets size and saves to our uint32 var\n        }\n        return size > 0; //true if bigger, false if not, meaning not a smart contract.\n    }\n\n\n} /*end of Kittycontract */ ",
  "sourcePath": "/Users/web3dev/Documents/blockchain-dev-projects/filip-nft-marketplace/crypto-kitties-github/moralis-nft-marketplace/academy-kitties-template/7. ERC-721_Fulfillment/contracts/Kittycontract.sol",
  "compiler": {
    "name": "solc",
    "version": "0.5.16+commit.9c3226ce.Emscripten.clang"
  },
  "schemaVersion": "3.4.11",
  "updatedAt": "2023-01-30T03:49:08.289Z",
  "devdoc": {
    "methods": {}
  },
  "userdoc": {
    "methods": {}
  }
}